:100000000C9400090C9444090C9444090C94440980
:100010000C9444090C9444090C9444090C9444092C
:100020000C9444090C9444090C94AB0E0C94580F96
:100030000C9444090C9444090C9444090C9444090C
:100040000C9444090C94CA2B0C9444090C94440954
:100050000C9444090C9416200C9444090C94440903
:100060000C9444090C9444090C9444090C944409DC
:100070000C9444090C9444090C9444090C944409CC
:100080000C9444090C9444090C9444090C944409BC
:100090000C9444090C9444090C9444090C944409AC
:1000A0000C9444090C9444090C944409D514D514B7
:1000B000031503155815941585178517AC15851765
:1000C000A316A3165F17851785177317E12809294B
:1000D0004427262A262A9228262A262A3529262A0D
:1000E0004829EF29262A262A262A262A92297929EA
:1000F000262A6229262A2229262A3927202A202A46
:10010000202A202A202A202A202A202A202A1E2AA1
:10011000262A1E2A262A262A262A262A262A262A67
:10012000262A262A262A262A262A1E2A262A262A57
:1001300092287328222A222A222A222A222A222AA2
:10014000222A222A222A222A222A222A012A262A6C
:10015000F5286E6F7420737570706F727465642EFD
:100160000A000A0A4A756D7020746F20626F6F74FE
:100170006C6F616465722E2E2E200000F0F1A104D8
:100180008D088A018D292BE0E1E3001E14041D3542
:100190004D1F1A161B322A20080706342C21150978
:1001A00019314A22170A0500E02D2F00C100E22E66
:1001B0003000C10046231C0B11004924180D1050BB
:1001C0004B250C0E36512C26120F3752282713338D
:1001D000384F4E4C6434E5E7000101010101003A5B
:1001E00001010101013B01010101013C010101018A
:1001F000013D01010101013E010101000144C40072
:100200000100014501000100013F01010100014021
:100210000101010101415F5C59620142605D5A6266
:100220000143615E5B6301015455566700C00101E3
:1002300001010001010101010101010101010101AF
:10024000010101010101010101010101010101009F
:1002500001010100010001C40100010001010101CF
:10026000010001010101010101010101010101017F
:10027000010101010101010101010101010101016E
:100280000001010101010001010101010101010160
:10029000010101010101010101010101010101014E
:1002A0000101010001010100010001010100010043
:1002B00001530000000001545F5C59620155605D0C
:1002C0005A630155615E5B38015656575758012AEB
:1002D0002A585858000A002530313662003A20006A
:1002E00025303258000A722F6320303132333435D2
:1002F000363738394142434445460A000A00253022
:10030000325800626F756E6365213A20006C656635
:100310007420736964652061747461636865640A3C
:10032000006C6566742073696465206E6F7420725A
:100330006573706F6E64696E670A00747279696EB6
:100340006720746F207265736574206D637032333B
:100350003031380A000A002530325800206D6F64B1
:10036000733A2000200025303258006B6579733ACB
:10037000200000010000970512000200000304861F
:10038000002100001504090022000058053F00214B
:1003900001002E040900220100CE045100210200B8
:1003A00047040900220200B904150021030060047B
:1003B00009002203008904300021040060040900C0
:1003C0002204001F053900030000FF030401030994
:1003D00004ED031002030904DB031010034500724F
:1003E0000067006F0064006F007800000010035485
:1003F000004D004B002F0043007500620000000418
:1004000003090409028600050100A0320904000066
:100410000103010100092111010001223F0007052C
:10042000810308000A0904010001030000000921FA
:10043000110100012251000705820308000109048F
:100440000200010300000009211101000122150032
:1004500007058303200001090403000103000000D5
:100460000921110100012230000705840308000A58
:100470000904040001030000000921110100012208
:1004800039000705850310000105010980A10185D8
:1004900002150125B7190129B7751095018100C012
:1004A000050C0901A10185031501269C0219012AE9
:1004B0009C02751095018100C00631FF0974A1539B
:1004C0007508150026FF00952009758102C00501F9
:1004D0000902A1010901A100050919012905150059
:1004E00025017501950581027503950181030501BB
:1004F000093009311581257F750895028106093873
:100500001581257F35004500750895018106050C8C
:100510000A38021581257F750895018106C0C0053E
:10052000010906A10175019508050719E029E715DC
:10053000002501810295057501050819012905911C
:100540000295017503910395787501150025010544
:1005500007190029778102C005010906A10175016B
:100560009508050719E029E7150025018102950185
:100570007508810395057501050819012905910282
:1005800095017503910395067508150025FF05076C
:10059000190029FF8100C01201000200000020EDB7
:1005A000FE071301000102000101C10201C10201A5
:1005B000C12601C10601C116000A002530325820AB
:1005C000006B6579626F6172645F7265706F7274DF
:1005D0003A20000A0025303258006B6579626F615D
:1005E00072645F7365745F6C65643A200064656C67
:1005F0005F6B65795F6269743A2063616E2774206E
:1006000064656C3A20253032580A006164645F6B7F
:1006100065795F6269743A2063616E277420616452
:10062000643A20253032580A00646F6E652E0A0045
:10063000626F6F676D61676963207363616E3A20F3
:100640002E2E2E2000290A002575002F002575006A
:100650005D2800256400200025640020002564003A
:1006600020002564007C0025303258006D6F7573C2
:10067000656B6579205B62746E7C782079207620CA
:10068000685D287265702F61636C293A205B000AEF
:10069000002575006D6B5F776865656C5F74696DCB
:1006A000655F746F5F6D6178203D20000A002575DD
:1006B000006D6B5F776865656C5F6D61785F737007
:1006C000656564203D20000A002575006D6B5F7430
:1006D000696D655F746F5F6D6178203D20000A0071
:1006E0002575006D6B5F6D61785F73706565642063
:1006F0003D20000A002575006D6B5F696E746572A0
:1007000076616C203D20000A002575006D6B5F64EA
:10071000656C6179203D20000A002575006D6B5FD6
:10072000776865656C5F74696D655F746F5F6D6137
:1007300078203D20000A002575006D6B5F776865A5
:10074000656C5F6D61785F7370656564203D200046
:100750000A002575006D6B5F74696D655F746F5F6E
:100760006D6178203D20000A002575006D6B5F6D7E
:1007700061785F7370656564203D20000A0025750F
:10078000006D6B5F696E74657276616C203D200050
:100790000A002575006D6B5F64656C6179203D20F2
:1007A000000A00257500363A206D6B5F7768656535
:1007B0006C5F74696D655F746F5F6D61783A20007E
:1007C0000A00257500353A206D6B5F776865656CAA
:1007D0005F6D61785F73706565643A20000A00257B
:1007E0007500343A206D6B5F74696D655F746F5F7F
:1007F0006D61783A20000A00257500333A206D6B50
:100800005F6D61785F73706565643A20000A00254A
:100810007500323A206D6B5F696E74657276616C3B
:10082000286D73293A20000A00257500313A206DA1
:100830006B5F64656C6179282A31306D73293A20C9
:10084000000A0A2D2D2D2D2D204D6F7573656B65BA
:100850007920506172616D6574657273202D2D2D44
:100860002D2D0A003E20002575004D003F007365C8
:10087000742064656661756C742076616C7565734F
:100880002E0A000A0025750073656C656374656443
:1008900020706172616D657465723A2000433E207C
:1008A000000A51756974204D6F7573656B65792009
:1008B000436F6E736F6C650A0053656520687474CE
:1008C000703A2F2F656E2E77696B69706564696168
:1008D0002E6F72672F77696B692F4D6F7573655F28
:1008E0006B6579730A000A002575002C207768650E
:1008F000656C3D0025750077686572652064656CE0
:1009000074613A20637572736F723D000A7370658B
:100910006564203D2064656C7461202A206D6178D7
:100920005F7370656564202A202872657065617444
:10093000202F2074696D655F746F5F6D6178290A7F
:10094000007067646F776E3A0964656372656173FE
:100950006520706172616D6574657273282D313028
:10096000290A00706775703A09696E637265617370
:100970006520706172616D6574657273282B31300A
:10098000290A00646F776E3A096465637265617362
:100990006520706172616D6574657273282D3129EF
:1009A0000A0075703A09696E63726561736520703B
:1009B0006172616D6574657273282B31290A006458
:1009C0003A097365742064656661756C742076619C
:1009D0006C7565730A00703A097072696E742070E4
:1009E0006172616D65746572730A00363A097365E8
:1009F0006C656374206D6B5F776865656C5F7469A7
:100A00006D655F746F5F6D61780A00353A097365D3
:100A10006C656374206D6B5F776865656C5F6D6195
:100A2000785F73706565640A00343A0973656C65B4
:100A30006374206D6B5F74696D655F746F5F6D616A
:100A4000780A00333A0973656C656374206D6B5FD7
:100A50006D61785F73706565640A00323A09736589
:100A60006C656374206D6B5F696E74657276616C22
:100A7000286D73290A00313A0973656C6563742027
:100A80006D6B5F64656C6179282A31306D73290A5A
:100A9000004553432F713A09717569740A000A0AB7
:100AA0002D2D2D2D2D204D6F7573656B6579205083
:100AB0006172616D65746572732048656C70202D7C
:100AC0002D2D2D2D0A003F004D303E000A456E743D
:100AD0006572204D6F7573656B657920436F6E731A
:100AE0006F6C650A000A5175697420436F6E736FED
:100AF0006C65204D6F64650A00433E20000A0025A6
:100B0000750020746F200025750073776974636821
:100B10005F64656661756C745F6C617965723A20BB
:100B2000006D3A096D6F7573656B65790A00455301
:100B3000432F713A09717569740A000A0A2D2D2D27
:100B40002D2D20436F6E736F6C652048656C70208F
:100B50002D2D2D2D2D0A00506175733A096A756D82
:100B60007020746F20626F6F746C6F616465720ABD
:100B700000436170733A094C6F636B204B65796277
:100B80006F617264284368696C642050726F6F668D
:100B9000290A00505363723A09706F7765722064B6
:100BA0006F776E2F72656D6F74652077616B652D41
:100BB00075700A00342F46343A0973776974636894
:100BC00020746F204C6179657234200A00332F46FF
:100BD000333A0973776974636820746F204C6179C4
:100BE000657233200A00322F46323A0973776974EE
:100BF000636820746F204C6179657232200A00317D
:100C00002F46313A0973776974636820746F204CFA
:100C10006179657231200A00302F4631303A09730C
:100C2000776974636820746F204C61796572302035
:100C30000A006E3A09746F67676C65204E4B524F1D
:100C40000A00653A097072696E7420656570726F8A
:100C50006D20636F6E6669670A00733A0970726986
:100C60006E74207374617475730A00743A0970723B
:100C7000696E742074696D657220636F756E740A95
:100C800000763A097072696E7420646576696365EE
:100C90002076657273696F6E202620696E666F0A12
:100CA000007A3A09746F67676C6520736C656570CC
:100CB000204C454420746573740A006D3A09746FC2
:100CC00067676C65206D6F75736520646562756715
:100CD0000A006B3A09746F67676C65206B6579620F
:100CE0006F6172642064656275670A00783A0974FE
:100CF0006F67676C65206D617472697820646562E6
:100D000075670A00643A09746F67676C65206465EB
:100D100062756720656E61626C650A00633A0965F9
:100D20006E74657220636F6E736F6C65206D6F6497
:100D3000650A000A0A2D2D2D2D2D20436F6D6D6142
:100D40006E642048656C70202D2D2D2D2D0A000A13
:100D5000002575002E6E6B726F3A20000A00257513
:100D6000002E737761705F6261636B736C6173688F
:100D70005F6261636B73706163653A20000A0025EE
:100D800075002E737761705F67726176655F65735A
:100D9000633A20000A002575002E6E6F5F67756943
:100DA0003A20000A002575002E737761705F72612A
:100DB0006C745F726775693A20000A002575002E11
:100DC000737761705F6C616C745F6C6775693A20F2
:100DD000000A002575002E636170736C6F636B5F92
:100DE000746F5F636F6E74726F6C3A20000A002537
:100DF00075002E737761705F636F6E74726F6C5FD6
:100E0000636170736C6F636B3A20000A00253032A7
:100E100058006B65796D61705F636F6E6669672EF0
:100E20007261773A20000A002575002E6D6F757388
:100E3000653A20000A002575002E6B6579626F61A6
:100E400072643A20000A002575002E6D6174726983
:100E5000783A20000A002575002E656E61626C6587
:100E60003A20000A00253032580064656275675FD9
:100E7000636F6E6669672E7261773A20000A0025FB
:100E8000750064656661756C745F6C617965723A52
:100E900020003F004E4B524F3A2064697361626CF0
:100EA00065640A004E4B524F3A20656E61626C6574
:100EB000640A007573625F6B6579626F6172645F6B
:100EC00069646C655F636F756E743A2025580A001B
:100ED0007573625F6B6579626F6172645F6C656484
:100EE000733A2025580A005544494E543A20255853
:100EF0000A00554449454E3A2025580A00554443B6
:100F00004F4E3A2025580A006B6579626F61726412
:100F10005F69646C653A2025580A006B6579626FD9
:100F20006172645F70726F746F636F6C3A202558E2
:100F30000A00686F73745F6B6579626F6172645FDA
:100F40006C65647328293A2025580A000A0A2D2D59
:100F50002D2D2D20537461747573202D2D2D2D2D65
:100F60000A0074696D65725F636F756E743A20254F
:100F700030346C580A004743433A20342E382E311F
:100F8000204156522D4C4942433A20312E382E30C2
:100F900073766E204156525F415243483A20617643
:100FA00072350A004F5054494F4E533A20504A521E
:100FB0004320424F4F544D41474943204D4F5553D5
:100FC000454B45592045585452414B455920434FB4
:100FD0004E534F4C4520434F4D4D414E44204E4BB8
:100FE000524F203531320A004255494C443A2030A4
:100FF0003931313135622D64697274792028303984
:101000003A30393A33302044656320313020323071
:101010003135290A005649443A203078464545443E
:1010200028544D4B2F43756229205049443A2030B3
:101030007831333037284572676F646F78292056CE
:1010400045523A203078303030310A00444553431D
:101050003A20742E6D2E6B2E206B6579626F617253
:1010600064206669726D7761726520666F722045D3
:1010700072676F646F780A000A0A2D2D2D2D2D20BE
:1010800056657273696F6E202D2D2D2D2D0A000A65
:1010900044454255473A206D6F7573652064697306
:1010A00061626C65642E0A000A44454255473A2045
:1010B0006D6F75736520656E61626C65642E0A00E4
:1010C0000A44454255473A206B6579626F61726404
:1010D0002064697361626C65642E0A000A444542AB
:1010E00055473A206B6579626F61726420656E6165
:1010F000626C65642E0A000A44454255473A206DE9
:1011000061747269782064697361626C65642E0A27
:10111000000A44454255473A206D6174726978204F
:10112000656E61626C65642E0A000A44454255474B
:101130003A20656E61626C65642E0A000A4445427D
:1011400055473A2064697361626C65642E0A006ECB
:101150006F7420737570706F727465642E0A000A64
:101160000A4A756D7020746F20626F6F746C6F61C6
:101170006465722E2E2E2000433E20000A456E74B8
:10118000657220436F6E736F6C65204D6F64650AE6
:1011900000556E6C6F636B65642E0A004C6F636B59
:1011A00065642E0A006565636F6E6669673A0A00BA
:1011B000536C656570204C454420746573740A0057
:1011C0000000000000000000000000010204060A08
:1011D0000F17202C3A4A5D71879DB3C7DAE9F5FCF9
:1011E000FFFCF5E9DAC7B39D87715D4A3A2C2017F9
:1011F0000F0A0604020100000000000000000000C9
:1012000011241FBECFEFDAE0DEBFCDBF04B603FE70
:1012100024C08091CB019091CC01A091CD01B091DF
:10122000CE018730904BA740B04BB9F41092CB0160
:101230001092CC011092CD011092CE0114BE84B751
:10124000877F84BF88E10FB6F89480936000109286
:1012500060000FBEE0E0FFE3099511E0A0E0B1E01F
:10126000E8E1FBE502C005900D92A232B107D9F783
:1012700021E0A2E2B1E001C01D92AB3CB207E1F770
:101280000E94430D0C948A2D0C940000FF93EF9361
:10129000E091B501F091B601309709F00995EF9111
:1012A000FF910895FC018591803011F0EFDFFBCFB5
:1012B0000895FF27E0E230E247FF0CC0419597FF19
:1012C00009C0EDE26095709580959095611D711D46
:1012D000811D911D27FF02C0219530E350E2AA270E
:1012E000660F771F881F991FAA1FA41710F0A41B51
:1012F00063955A95A9F7AA3008F0A95FA05DAF934E
:10130000F395611571058105910541F7ED3211F4F1
:10131000EF93F395F21718F43F93F395FBCF8F916A
:10132000B5DFFA95E1F70895E991F991859180305B
:1013300021F0853219F0AADFF9CF089520E0E89472
:1013400055915532C1F3503311F4689455915A3385
:1013500048F4505390F3220F022E220F220F200D3B
:10136000250FF4CF0EF4219589919991533619F3F5
:10137000533729F1533559F1BC0188279927E8944F
:101380005C3621F48991999168945591543639F4D9
:1013900046EF7EF077FF0DC08FEF9FEF0AC0553705
:1013A0004AE039F0583540E121F0523642E009F088
:1013B0000895FF93EF937DDFEF91FF91B7CFFF93F8
:1013C000EF93FC0181918030B9F360DFFBCFFF9395
:1013D000EF9368DFF1CFDF93CF93CDB7DEB72596DC
:1013E000A3DFCF91DF91089508950895611115C08D
:1013F0000E94A61782E691E00E9452092FEF84E333
:101400009CE0215080409040E1F700C000000E9425
:101410003B2082E591E00C9452090895272F70E05B
:1014200030E0843060F496E0929FF001939FF00DDD
:10143000112494E5899FE00DF11D112406C086E07A
:10144000829FF001839FF00D1124E60FF71FEB57E9
:10145000FE4F84910895E82FF0E0E05CF109E5305B
:10146000F10538F4EE0FFF1FE558FE4F859194917A
:10147000089580E090E008958091010181111AC0E3
:1014800080E40E94FE0C80930101811111C082E171
:101490000E94280D8093010181110AC080913F01B3
:1014A00087958827879580950E94280D8093010154
:1014B0000E94200D84B1807F84B985B1807F85B979
:1014C0008AB1837F8AB98BB1837F8BB93E98469866
:1014D00008950E94120C0E94A10C809301010E94A9
:1014E000590C0E943C0A80B38C7080BB81B3836F1F
:1014F00081BBE1E3F1E0A3E2B1E011921D9281E052
:10150000EF33F807D1F708959F92AF92BF92CF9231
:10151000DF92EF92FF920F931F93CF93DF9380910F
:1015200001018823E1F0809122018F5F80932201E5
:10153000811115C08BE393E00E9452090E94A10C17
:1015400080930101882329F081E293E00E945209EF
:1015500006C08DE093E00E9452090E94590C03E2FC
:1015600011E0C0E0D0E0BB24B39482E0A82ECC24EC
:10157000C394D12C2EEFE22E22E0F22EC73030F5AC
:1015800080910101811168C080E40E94FE0C80936B
:101590000101811118C082E10E94280D8093010190
:1015A000811111C080913F01879588278795960109
:1015B0000C2E01C0220F0A94EAF7822B80950E941C
:1015C000280D809301010E94200D46C0CA30A1F071
:1015D00028F4C83059F0C93061F005C0CC3089F02A
:1015E00070F0CD3089F0209A289810C0219A29985F
:1015F0000DC0229A2A980AC0239A2B9807C0529AA3
:1016000001C0539A5B9802C03E9A4698E0EAEA9578
:10161000F1F78FB179997FC092E081708B25892B8A
:101620007C9B02C090E001C094E0892B7D9B02C0AE
:1016300090E001C098E0892B7E9B02C090E001C041
:1016400090E1892B9FB19095991F9927991F9295A9
:10165000990F907E892B10C080910101811170C07B
:1016600080E40E94FE0C80930101882309F455C098
:10167000912C0E94200D892DF8019081981739F145
:10168000808380910001882301F18091B30180FF64
:1016900004C083E093E00E9452098091B30180FF6F
:1016A0000CC0809100011F928F93FF92EF920E94D5
:1016B000EB090F900F900F900F908091B30180FF76
:1016C00004C08CEF92E00E945209A09200010E9497
:1016D0003C0A21960F5F1F4FCE30D10509F04ECF47
:1016E00080910001882371F181508093000188234B
:1016F00039F08FE99FE00197F1F700C0000022C0A8
:10170000A1E3B1E0E3E2F1E081918D9391E0E13377
:10171000F907D1F717C090E080CF83E10E94280D30
:10172000809301018111A4CF81E40E94FE0C80937B
:10173000010181119DCF0E94390D982E909499CF6F
:1017400080E09ACF81E0DF91CF911F910F91FF90C0
:10175000EF90DF90CF90BF90AF909F900895E82FCB
:10176000F0E0EF5CFE4F80810895CF92DF92EF9220
:10177000FF920F931F93CF93DF9385EE92E00E9429
:10178000520931E3E32E31E0F32EC0E0D0E040EE29
:10179000C42E42E0D42E07ED12E0DF93CF93DF9208
:1017A000CF920E94EB098DED92E00E945209F70161
:1017B00081917F0190E00E94851F9F938F931F93DB
:1017C0000F930E94EB0985ED92E00E945209219649
:1017D0008DB79EB708960FB6F8949EBF0FBE8DBF0B
:1017E000CE30D105D1F6DF91CF911F910F91FF90AF
:1017F000EF90DF90CF90089580FF03C0259A2D9A37
:1018000002C025982D9881FF03C0269A2E9A02C007
:1018100026982E9882FF03C0279A2F9A089527981A
:101820002F98089589EA8093800089E08093810051
:1018300024982C983F988AB18F748AB96E98479AE9
:101840008BB1806B8BB9769A0895809101018111DB
:101850002FC080E40E94FE0C80930101811124C0FE
:1018600084E10E94280D8093010181111DC08091A7
:101870003F0187958827879580950E94280D809342
:101880000101811111C080914101879588278795B9
:10189000909140019295990F990F907C892B80959A
:1018A0000E94280D809301010E94200D809101016A
:1018B000089556985E9825982D9826982E982798E2
:1018C0002F98109241011092400110923F010E9406
:1018D000250C8FEF90E0909389008093880090937F
:1018E0008B0080938A0090938D0080938C00569A91
:1018F0005E9A259A2D9A269A2E9A279A2F9A81E0F7
:10190000809341018093400180933F010E94250C08
:101910002FE782E490E1215080409040E1F700C041
:10192000000056985E9825982D9826982E9827980E
:101930002F98109241011092400110923F010C9497
:10194000250C80E2809301018091420181110EC03B
:101950000E94F80C81E0809342012FEF83ED90E329
:10196000215080409040E1F700C0000080E40E94D8
:10197000FE0C8093010181112EC00E94280D8093DE
:101980000101811128C00E94280D8093010181115D
:1019900022C08FE30E94280D8093010181111BC09A
:1019A0000E94200D80E40E94FE0C809301018111B1
:1019B00012C08CE00E94280D8093010181110BC0A0
:1019C0000E94280D80930101811105C08FE30E94C0
:1019D000280D809301010E94200D80910101811149
:1019E00004C00E94250C809301018091010108959B
:1019F0001092B9008AE08093B800089594EA909319
:101A0000BC009091BC0097FFFCCF9091B900987FEB
:101A1000983021F0903111F081E008958093BB005F
:101A200084E88093BC008091BC0087FFFCCF80914C
:101A3000B900887F883111F0803471F780E0089513
:101A400084E98093BC008091BC0084FDFCCF0895A4
:101A50008093BB0084E88093BC008091BC0087FF2A
:101A6000FCCF9091B900987F81E0983209F480E032
:101A7000089584E88093BC008091BC0087FFFCCF70
:101A80008091BB00089580E880936100109261000E
:101A90000E947D0E0E94960E8823E1F38FE29EE065
:101AA0000E941B1F0E946A120E94820D0E94D81180
:101AB0000E94A52B80914701882369F00E949F1FF7
:101AC000809148018823B1F30E94C11F882391F3BC
:101AD0000E94A10EEFCF0E949812ECCF809143019B
:101AE00008950C94D0110C94D4110F93FC01008133
:101AF00024814381628181810E9433110F91089575
:101B00000C94120E82E091E00895FF920F931F93C0
:101B1000CF93DF93D82FF92E162F042F0E94960E05
:101B2000811102C08FEF2AC02FB7F8941093E900FB
:101B3000C091E400CE5C8091E80085FF04C09D2F39
:101B4000ED2FFF2D0EC02FBF0E94960E882351F35C
:101B50008091E4008C1731F32FB7F8941093E900CB
:101B6000EACF8E2F891B801720F481918093F1009A
:101B7000F8CF8AE38093E8002FBF80E0DF91CF9118
:101B80001F910F91FF900895EF92FF920F931F9373
:101B9000CF93DF938C018091B30182FF3CC08BE631
:101BA00093E00E945209C0E0D0E086E6E82E83E090
:101BB000F82EF801EC0FFD1F82811F928F93FF9288
:101BC000EF920E94EB0984E693E00E94520921966D
:101BD0000F900F900F900F90CE30D10551F78CE5FC
:101BE00093E00E945209F80180811F928F9387E54C
:101BF00093E09F938F930E94EB090F900F900F90AB
:101C00000F9085E593E0DF91CF911F910F91FF90A9
:101C1000EF900C945209DF91CF911F910F91FF909B
:101C2000EF9008951F93CF93DF93EC0180910F0104
:101C3000882319F040E165E002C048E061E0CE0190
:101C40000E94850D182F811105C010924401CE010C
:101C50000E94C40D812FDF91CF911F9108951F9392
:101C6000CF93DF93D82F0E94960E882371F09FB7F1
:101C7000F89483E08093E90080914601882349F03D
:101C80008091E80085FD03C09FBF8FEF2DC01092AB
:101C90004601C091E400CC5F13E08091E80085FD2F
:101CA00012C09FBF8091E4008C1304C081E0809338
:101CB0004601EBCF0E94960E882339F39FB7F89424
:101CC0001093E900EACFD093F1008091E80085FD00
:101CD00006C08AE38093E8001092450103C082E0C9
:101CE000809345019FBF80E0DF91CF911F910895C0
:101CF0008091E80080FFFCCF089581E08093D700B9
:101D000080EA8093D80082E189BD09B400FEFDCF4E
:101D100080E98093D8001092E00010924A0110925E
:101D200047018DE18093E2007894089580914A0103
:101D3000882329F08091470191E08927089580E068
:101D400008958091E00082608093E0008091E0003F
:101D500081FDFCCF08951F920F920FB60F921124B0
:101D60002F933F934F935F936F937F938F939F93A3
:101D7000AF93BF93CF93EF93FF93C091E100109285
:101D8000E100C0FF17C08091E20080FF13C0809186
:101D90004A01882379F00E94B72B8091E2008E7F60
:101DA0008093E2008091E20080618093E20081E014
:101DB00080934701C4FF1CC08091E20084FF18C0DB
:101DC00080914A018823A1F00E94D61F0E94BD2B5A
:101DD0000E94E2110E94FC0B8091E20081608093DE
:101DE000E2008091E2008F7E8093E2001092470132
:101DF000C3FF0FC01092E90081E08093EB001092C6
:101E0000EC0082E28093ED0088E08093F000109275
:101E10004A01C2FF3BC080914A018823B9F18091F9
:101E20004501882391F081508093450181110DC0B7
:101E300083E08093E9008091E80085FF03C0109261
:101E4000F100F9CF8AE38093E80080910F018111BE
:101E50001DC080910C018823C9F0809149018F5FDA
:101E600080934901837091F481E08093E90080912F
:101E7000E80085FF0BC0809144018F5F809344018F
:101E800090910C01891302C010924401FF91EF91CF
:101E9000CF91BF91AF919F918F917F916F915F9102
:101EA0004F913F912F910F900FBE0F901F9018955B
:101EB0001F920F920FB60F921124EF92FF920F9381
:101EC0001F932F933F934F935F936F937F938F93C2
:101ED0009F93AF93BF93EF93FF93CF93DF931F92A3
:101EE000CDB7DEB71092E9008091E80083FFA0C172
:101EF0009091F1008091F1003091F1002091F1007A
:101F0000E32EF12CF22A0091F1002091F10010E073
:101F1000122B2091F1004091F10030E0342B42EF80
:101F20004093E800863009F044C06FE082E793E018
:101F3000FC01459154914E155F0539F4FC01329630
:101F4000459154914017510721F00796615081F750
:101F50006FC1FC01349645915491FC0136968491F1
:101F60002F3F310519F010F02FEF30E0281708F45B
:101F7000822F3EEF9091E800292F2570D9F392FD32
:101F80005AC1982F813208F090E2FA01292F2223BA
:101F900031F064916093F10021503196F8CF490FF0
:101FA000511D891B3093E8008111E4CF903211F369
:101FB00042C1853051F48EEF8093E8000E94780E84
:101FC0008E2D80688093E30036C1893059F59111D8
:101FD00049C0E0924A018EEF8093E80041E089EA2F
:101FE00095E051E04093E9009C012F5F3F4FFC01D9
:101FF0006491662371F05093EB00F90124912093D2
:10200000EC009C012D5F3F4F319684918093ED0051
:1020100002C01092EB004F5F473011F0C901E2CFD0
:102020008EE743C0883041F4903809F052C00E94D6
:10203000780E80914A01CDC0811114C099830E940D
:10204000780E9981923851F40093E9008091EB0069
:1020500085FB882780F91092E90001C080E0809319
:10206000F100A6C0482F4D7F413099F5923011F50F
:10207000E114F10409F085C0402F4F775FEF540F52
:10208000563008F07EC09EEF9093E8004093E90040
:10209000833009F4CDC089E18093EB0081E090E0CA
:1020A000042E01C0880F0A94EAF78093EA00109288
:1020B000EA00C1C091110DC0F1E0EF16F10409F082
:1020C00060C0833019F4409348018CC010924801DD
:1020D00089C00115110509F058C0913A61F58130A8
:1020E000D9F40E94780EE0911001F09111018081E5
:1020F0008093F1001092F10080E090E0E0911001F7
:10210000F0911101E80FF91F22812093F10001964F
:102110008630910599F766C0823029F40E94780EC6
:1021200080910C0156C0833009F082C00E94780E65
:1021300080910D014EC0913209F07AC0893061F46E
:102140008091E80082FFFCCF8091F10080934301F1
:102150008BEF8093E80046C08A3029F4F0920C019E
:10216000109244013FC08B3009F062C0E0920D0133
:1021700081E0E11001C080E080930F010E94A6176A
:1021800031C00115110509F453C00130110571F575
:10219000913A11F58130B9F451E0E516F10459F4A2
:1021A0000E94780E1092F1001092F1001092F1004E
:1021B0001092F10017C083E0E816F104C9F50E94FF
:1021C000780E85E006C0833099F50E94780E8091E4
:1021D0000E018093F10006C0913251F58B3041F52C
:1021E000E0920E018EEF8093E80025C002301105C9
:1021F000F9F48130E9F4913AD9F43EEF8091E800A6
:10220000982F9570D9F382FD16C0822F213208F0E5
:1022100080E2982F992321F01092F1009150FACF8B
:10222000281B3093E8002111E9CF803239F303C035
:1022300081E28093EB000F90DF91CF91FF91EF91BE
:10224000BF91AF919F918F917F916F915F914F91CE
:102250003F912F911F910F91FF90EF900F900FBE24
:102260000F901F901895EF92FF920F931F93CF93AB
:10227000DF9300D01F92CDB7DEB7E82E142F2B834B
:102280006A830E94960E2B816A81811102C08FEFB2
:1022900043C080E8E81202C041E8E42E603809F447
:1022A00061E8103809F411E8203809F421E88FB703
:1022B000F89492E09093E9009091E4009E5C32E003
:1022C000F32E3091E80035FD14C08FBF2B836A8355
:1022D00099830E94960E2B816A8199818823B9F295
:1022E0008091E400891799F28FB7F894F092E90091
:1022F000E8CF0093F100E092F1006093F10090913B
:102300000E01992321F01093F1002093F1009AE33C
:102310009093E8008FBF80E00F900F900F90DF91B7
:10232000CF911F910F91FF90EF900895FF920F931F
:102330001F93CF93DF93D82F8B010E94960E8111AC
:1023400002C08FEF27C09FB7F89484E08093E90024
:10235000C091E400CE5C84E0F82E8091E80085FD19
:102360000EC09FBF0E94960E882359F38091E4000F
:102370008C1739F39FB7F894F092E900EECFD09321
:10238000F1000093F1001093F1008AE38093E800DC
:102390009FBF80E0DF91CF911F910F91FF90089533
:1023A000BC0183E00C949611BC0182E00C94961160
:1023B0009093500180934F01089580914F01909127
:1023C00050010895E0914F01F0915001309721F0B4
:1023D0000190F081E02D099480E00895FF920F9321
:1023E0001F93CF93DF938C01E0914F01F091500147
:1023F000309799F10280F381E02D09958091B30126
:1024000082FF2BC080FF04C081EC95E00E9452093E
:10241000E80180E1F82E0BEB15E08091B30180FF1D
:102420000BC088811F928F931F930F930E94EB091B
:102430000F900F900F900F90FA942196F110EDCF1E
:102440008091B30180FF09C089EB95E0DF91CF91C6
:102450001F910F91FF900C945209DF91CF911F9122
:102460000F91FF900895E0914F01F0915001309746
:1024700021F00480F581E02D0994089520914D010B
:1024800030914E018217930771F090934E01809323
:102490004D01E0914F01F0915001309721F00680FD
:1024A000F781E02D0994089520914B0130914C0162
:1024B0008217930771F090934C0180934B01E09148
:1024C0004F01F0915001309721F00084F185E02D0B
:1024D000099408950E94D81F0E94690A0C94A120B3
:1024E000CF93C82F8091B30182FF1EC080FF04C02C
:1024F0008AED95E00E9452098091B30180FF0CC0E3
:102500001F92CF9325ED35E03F932F930E94EB0967
:102510000F900F900F900F908091B30180FF04C037
:1025200083ED95E00E9452098C2FCF910C94FC0B07
:10253000CF92DF92EF92FF920F931F93CF93DF938F
:10254000CDB7DEB72B970FB6F894DEBF0FBECDBF69
:102550000E94840A32E5E32E31E0F32E00E010E021
:10256000C02E802F0E94AF0BF701D1907F01D8269B
:10257000B1F40F5F1F4F0E30110591F78FEF898374
:102580008A831B820E94E11F8160782F9D838C8348
:1025900049815A816B818D810E943B1341C090918A
:1025A000B30191FF04C08B870E94B50B8B8520E09F
:1025B00030E04D2D50E0922FBA01022E02C07595E9
:1025C00067950A94E2F760FF25C02E83CF82EE2440
:1025D000E394F12C02C0EE0CFF1C9A95E2F790E018
:1025E0008E219F2121E0892B09F420E028870E9479
:1025F000E11F8160782F9A8789874E815F81688586
:102600008A850E943B13F801EE5AFE4F80818E2589
:10261000808306C02F5F3F4F2630310561F6A9CF7A
:102620000E940F24109151010E94E2111817A1F08D
:102630000E94E211809351012B960FB6F894DEBFF1
:102640000FBECDBFDF91CF911F910F91FF90EF9003
:10265000DF90CF900C9470122B960FB6F894DEBFDB
:102660000FBECDBFDF91CF911F910F91FF90EF90E3
:10267000DF90CF900895CF93DF93CDB7DEB72B9740
:102680000FB6F894DEBF0FBECDBF4F835887698762
:102690007A878B87DE01119686E0FD0111928A957B
:1026A000E9F785E0FE01379601900D928A95E1F7F2
:1026B00049815A816B817C818D819E810E946E1A35
:1026C0002B960FB6F894DEBF0FBECDBFDF91CF9132
:1026D0000895CF93C82F882309F4C1C0823859F4D4
:1026E0000E94E21181FDBBC089E30E94091D0E9486
:1026F000DD1D89E30CC0833879F40E94E21180FD6E
:10270000AEC083E50E94091D0E94DD1D83E50E9485
:10271000561DCF910C94DD1D843859F40E94E211AE
:1027200082FD9DC087E40E94091D0E94DD1D87E493
:10273000EECF8CEF8C0F813A48F48C2F0E94322A16
:1027400081118DC08C2F0E94091DE3CF80E28C0F78
:10275000883048F4C77081E001C0880FCA95EAF755
:102760000E94A41DD6CF8BE58C0F833078F4C53A38
:1027700029F0C63A31F482E890E005C081E890E0A3
:1027800002C083E890E0CF910C943E1288E58C0F54
:10279000833108F064C0C83A39F1C93A41F1CA3A04
:1027A00049F1CB3A51F1CC3A59F1CD3A61F1C03B04
:1027B00069F1CE3A71F1CF3A79F1C13B81F1C23B77
:1027C00089F1C33B91F1C43B99F1C53BA1F1C63BF3
:1027D000A9F1C73BB1F1C83BB9F1C93BC1F1CA3B53
:1027E000C9F58AE292E038C082EE90E035C089EE09
:1027F00090E032C08AEE90E02FC085EB90E02CC0D4
:1028000086EB90E029C087EB90E026C08CEC90E04E
:1028100023C08DEC90E020C083E891E01DC08AE8E1
:1028200091E01AC082E991E017C084E991E014C0F8
:1028300081E292E011C083E292E00EC084E292E075
:102840000BC085E292E008C086E292E005C087E214
:1028500092E002C080E090E0CF910C945412CF91AE
:102860000895882309F44BC0823859F40E94E2117C
:1028700081FF45C089E30E94091D0E94DD1D89E397
:102880000CC0833871F40E94E21180FF38C083E5E8
:102890000E94091D0E94DD1D83E50E94561D0C94B7
:1028A000DD1D843859F40E94E21182FF28C087E4BC
:1028B0000E94091D0E94DD1D87E4EFCF9CEF980F59
:1028C000913A58F390E2980F983050F4877091E065
:1028D00001C0990F8A95EAF7892F0E94AA1DDFCFC0
:1028E0009BE5980F933020F480E090E00C943E122A
:1028F000885A833120F480E090E00C9454120895BB
:10290000882321F00E94A41D0C94DD1D08958823C6
:1029100021F00E94AA1D0C94DD1D0895CF92DF9234
:10292000EF92FF920F931F93CF93DF93CDB7DEB754
:1029300028970FB6F894DEBF0FBECDBF8C0185E09F
:10294000F801DE01119601900D928A95E1F7F801E8
:1029500040813181F280258122952F70838194817D
:10296000892B31F03F3F31F481E04F3F19F403C030
:1029700081E001C080E080FDC8C249833A8389813B
:102980009A812F830E94C71C9E8388870E94C61C41
:102990000E94991B4E81E42FE295EF70F0E0EA5A15
:1029A000FF4F2F8168850C943F2D842F807F142F3B
:1029B0001F70882311F01295107FFF2059F011230A
:1029C00009F458C2812F68870E94B41D0E94DD1D42
:1029D000688550C2862F0E943114112309F495C2D4
:1029E000812F0E94BA1D28960FB6F894DEBF0FBE45
:1029F000CDBFDF91CF911F910F91FF90EF90DF90AE
:102A0000CF900C94DD1D342F307F842F8F703032A7
:102A100011F08295807F662319F0613009F12AC098
:102A2000FF20A1F0222381F1213071F528960FB605
:102A3000F894DEBF0FBECDBFDF91CF911F910F91F4
:102A4000FF90EF90DF90CF900C94C41D222319F0DB
:102A5000213009F45AC28E830E94C71D8E818EC117
:102A6000FF2021F0233008F050C20EC0223008F0C1
:102A70004CC284C1FF20C1F0222331F0F8019581BE
:102A800090FFF8C19F70958328960FB6F894DEBF2B
:102A90000FBECDBFDF91CF911F910F91FF90EF90AF
:102AA000DF90CF900C948014222309F467C1F6C103
:102AB000242F26952695237030E02115310521F02D
:102AC00021303105C9F021C2FF2021F0862F942F3B
:102AD000937002C080E090E028960FB6F894DEBFB5
:102AE0000FBECDBFDF91CF911F910F91FF90EF905F
:102AF000DF90CF900C943E12FF2021F0862F942F70
:102B0000937002C080E090E028960FB6F894DEBF84
:102B10000FBECDBFDF91CF911F910F91FF90EF902E
:102B2000DF90CF900C945412862FFF2019F00E9452
:102B3000952202C00E94FD2228960FB6F894DEBFAF
:102B40000FBECDBFDF91CF911F910F91FF90EF90FE
:102B5000DF90CF900C948223842F837009F076C08D
:102B6000F110D3C1262F229526952770220F220F10
:102B7000862F8F70C82ED12CE12CF12C022E04C090
:102B8000CC0CDD1CEE1CFF1C0A94D2F764FF10C0B5
:102B90006FE070E080E090E004C0660F771F881F50
:102BA000991F2A95D2F7609570958095909503C0EE
:102BB00060E070E0CB01242F269526952370422FEC
:102BC00050E042305105D1F04330510559F16C29A4
:102BD0007D298E299F294130510541F128960FB654
:102BE000F894DEBF0FBECDBFDF91CF911F910F9143
:102BF000FF90EF90DF90CF900C94BE1B6C297D2945
:102C00008E299F2928960FB6F894DEBF0FBECDBF40
:102C1000DF91CF911F910F91FF90EF90DF90CF90B8
:102C20000C94D81B0E94BE1BC701B60128960FB694
:102C3000F894DEBF0FBECDBFDF91CF911F910F91F2
:102C4000FF90EF90DF90CF900C94A41BFF2019F021
:102C5000842F817001C08695882309F456C1262FE0
:102C6000229526952770220F220F862F8F70C82E4F
:102C7000D12CE12CF12C022E04C0CC0CDD1CEE1C5E
:102C8000FF1C0A94D2F764FF10C06FE070E080E090
:102C900090E004C0660F771F881F991F2A95D2F70E
:102CA000609570958095909503C060E070E0CB01D1
:102CB000242F269526952370422F50E0423051054F
:102CC000D1F04330510559F16C297D298E299F2976
:102CD0004130510541F128960FB6F894DEBF0FBE82
:102CE000CDBFDF91CF911F910F91FF90EF90DF90BB
:102CF000CF900C94921C6C297D298E299F292896AF
:102D00000FB6F894DEBF0FBECDBFDF91CF911F91FC
:102D10000F91FF90EF90DF90CF900C94AC1C0E942D
:102D2000921CC701B60128960FB6F894DEBF0FBEFD
:102D3000CDBFDF91CF911F910F91FF90EF90DF906A
:102D4000CF900C94781C603F49F118F4603E48F431
:102D50008CC0623F09F451C0E0F1633F09F461C0E7
:102D600084C0162F1F70842F8F71FF2021F00E94C6
:102D7000111C812F89CE0E94321C812F28960FB6FC
:102D8000F894DEBF0FBECDBFDF91CF911F910F91A1
:102D9000FF90EF90DF90CF900C948714FF20A9F064
:102DA000223008F0B2C0842F8F7128960FB6F894A5
:102DB000DEBF0FBECDBFDF91CF911F910F91FF906E
:102DC000EF90DF90CF900C94571C233008F09DC0FB
:102DD000EACFFF20A1F0842F8F7128960FB6F894C8
:102DE000DEBF0FBECDBFDF91CF911F910F91FF903E
:102DF000EF90DF90CF900C94111CFF2061F3842F93
:102E00008F7128960FB6F894DEBF0FBECDBFDF914D
:102E1000CF911F910F91FF90EF90DF90CF900C9486
:102E2000321CFF2091F0842F8F7128960FB6F894F2
:102E3000DEBF0FBECDBFDF91CF911F910F91FF90ED
:102E4000EF90DF90CF900C94FC1B28960FB6F8946F
:102E5000DEBF0FBECDBFDF91CF911F910F91FF90CD
:102E6000EF90DF90CF900C94F21BFF20A1F0222373
:102E700009F4B1CF862F28960FB6F894DEBF0FBEA7
:102E8000CDBFDF91CF911F910F91FF90EF90DF9019
:102E9000CF900C946913222309F4B1CF862F289682
:102EA0000FB6F894DEBF0FBECDBFDF91CF911F915B
:102EB0000F91FF90EF90DF90CF900C9431144F70F2
:102EC000C8010E94181F28960FB6F894DEBF0FBEE7
:102ED000CDBFDF91CF911F910F91FF90EF90DF90C9
:102EE000CF900C941B1B4F70C80128960FB6F89416
:102EF000DEBF0FBECDBFDF91CF911F910F91FF902D
:102F0000EF90DF90CF900C94F60928960FB6F894C6
:102F1000DEBF0FBECDBFDF91CF911F910F91FF900C
:102F2000EF90DF90CF9008950E94C11D0E94961DE2
:102F30000E94DD1D0E94B0240E94822380E090E068
:102F40000E943E1280E090E00C9454120E94B11D49
:102F50000C9494170E94C71C292F22952F7030E0E3
:102F60002C3031054CF42A3031056CF422503109F3
:102F70002230310570F407C02C30310531F02F308C
:102F8000310519F006C081E0089593FB882780F988
:102F9000089580E00895CF93DF9300D000D01F9272
:102FA000CDB7DEB70F900F900F900F900F90DF917D
:102FB000CF910895CF93DF9300D000D000D0CDB74C
:102FC000DEB726960FB6F894DEBF0FBECDBFDF91F9
:102FD000CF9108951F93CF93DF93C091600116E0C6
:102FE00080916101C81799F0D0E01C9FF0011D9FEE
:102FF000F00D1124EE59FE4F4081518162817381A1
:10300000848195810E94DA172196C770E9CFDF91FC
:10301000CF911F9108954091920150919301609139
:1030200094017091950180919601909197010C9473
:10303000DA17CF938091970182958F7009F05FC066
:1030400080919401882309F45AC020916001A091D5
:10305000610160919201709193018091950190912D
:10306000960131E06F3F09F030E0B32FC6E02A1738
:1030700009F445C0009721F07F3F21F44B2F03C096
:1030800041E001C040E030E040FD35C0C29FF001AA
:10309000C39FF00D1124EE59FE4F418174132BC0D4
:1030A0004081641328C04281411125C0438154816D
:1030B0004817590710F441505109481B590B4A3F12
:1030C0005105C8F4809197018F70806180939701BA
:1030D00086E0829FF001839FF00D1124E959FE4F95
:1030E00080818F708061808382E991E00E948E14DC
:1030F000CF910C94EA172F5F3F4F2770B8CFCF9135
:103100000895CF92DF92EF92FF920F931F93CF9388
:10311000DF93CDB7DEB762970FB6F894DEBF0FBE70
:10312000CDBF8C0185E0F801DE011D9601900D9266
:103130008A95E1F7D8014C9111965C9111971296FE
:103140006C9112971396ED90FC90149770919201E8
:10315000E09193012091950130919601211531055F
:1031600031F0EF3F31F481E07F3F19F403C081E09B
:1031700001C080E0B82FB170CB2E80FD6CC1D09023
:103180009401DD2009F4F5C0F0919701E216F306F1
:1031900038F0C701821B930B8A3F910548F09BC012
:1031A000209530952E0D3F1D2A3F310508F093C024
:1031B0008F2F807F09F052C0E51314C0741312C022
:1031C000D62E61110FC0FF70F061F09397010E943D
:1031D0000B1882E991E00E948E1480919701F8010A
:1031E00085836CC1EF2831F05F3F31F481E04F3FC0
:1031F00019F403C081E001C080E080FD03C081E0DC
:10320000862701C080E0F82FF170FF2E80FF1CC0E0
:10321000809160012091610136E0821709F428C194
:1032200090E0389FF001399FF00D1124EE59FE4FC8
:103230007181571306C07081471303C072816713F1
:1032400003C001968770E9CFD62E662309F436C1F4
:103250008091970181608093970153C0E51308C066
:10326000741306C0611104C0D8011596FC93AEC05A
:103270004D875E878D859E856A8B0E94AA176A8915
:10328000882329F1D62E662311F120919701822FF0
:1032900082958F7090E002970CF460C0809192014B
:1032A0009091930198878F831986FB86EA862C87F5
:1032B000CE01079651C0E51731F14D875E878D85A8
:1032C0009E856A8B0E94AA176A8981112EC0C80147
:1032D0000E948E14A4C08F2F807F69F77E2DF98AFB
:1032E000E88A89890E94CB1782E991E00E948E14B6
:1032F000E2E9F1E086E0DF011D928A95E9F70E949C
:103300000B18D12CDBC07413D8CF6111D6CFD801E4
:103310001596FC93C8010E948E14E2E9F1E086E064
:10332000DF011D928A95E9F7C9C0D62E662379F28E
:1033300020919701822F82958F7090E0029774F010
:1033400080919201909193019A8389831B82FD82DF
:10335000EC822E83CE0101960E948E1486E0F80145
:10336000A2E9B1E001900D928A95E1F70E94191847
:103370006FC0E216F30628F0C701821B930B9C0175
:1033800004C0209530952E0D3F1D2A3F310508F0D1
:1033900052C0D62E662309F49ACFE5132CC07413BD
:1033A0002AC08091970180FD1DC0982F92959F7033
:1033B000C9F0D80115968C9315979F3039F09F5F0F
:1033C0009295907F8F70892B15968C93C8010E94DF
:1033D0008E1486E0F801A2E9B1E001900D928A9581
:1033E000E1F736C086E0F801A2E9B1E001900D9264
:1033F0008A95E1F763C04D875E878D859E850E9423
:10340000AA17882379F086E0F801A2E9B1E00190DB
:103410000D928A95E1F70E9419180E940B18DD247D
:10342000D3944CC080919701816080939701C8012B
:103430000E948E1443C07E2DF98AE88A89890E94F1
:10344000CB17E2E9F1E086E0DF011D928A95E9F70A
:103450000E940B1833C0662309F439CF4D875E876D
:103460008D859E850E94AA17882309F430CFCBCF83
:103470004D875E878D859E850E94C71C292F2295CA
:103480002F7030E0223031052CF49F7041F0811113
:1034900006C00CC0243031052CF49F7049F4805EC6
:1034A000883020F0C8010E948E14CF2CDC2C06C07E
:1034B000D80115969C91907F91F7F8CF8D2D62964B
:1034C0000FB6F894DEBF0FBECDBFDF91CF911F9135
:1034D0000F91FF90EF90DF90CF9008951F93CF93BF
:1034E000DF93CDB7DEB72C970FB6F894DEBF0FBED3
:1034F000CDBF4F83588769877A878B879C87CE019A
:1035000007960E9481188823C1F02F8138858A850B
:103510009B85892B31F03F3F11F080E003C02F3FA6
:10352000E1F781E0811147C04F81588569857A852F
:103530008B859C850E94DA173EC086E0FE01379697
:10354000DE01119601900D928A95E1F7FF81E885E1
:103550004A855B854115510531F0EF3F31F481E03B
:10356000FF3F19F403C081E001C080E080FD23C06B
:103570002091610130E0C90101968770992760911F
:10358000600170E086179707F1F1F983EA835D83A4
:103590004C8396E0929FD001939FB00D1124AE59B9
:1035A000BE4FFE01319601900D929A95E1F78093FE
:1035B00061010E94EA1716E080916001909161011B
:1035C000891779F1189FC00111248E599E4F0E94CE
:1035D0008118882331F1E09160011E9FF0011124D0
:1035E000EE59FE4F408151816281738184819581C2
:1035F0000E94DA178091600190E001968770992708
:1036000080936001D9CF0E94A61710926101109299
:103610006001E2E9F1E086E0DF011D928A95E9F7B9
:10362000CACF2C960FB6F894DEBF0FBECDBFDF9188
:10363000CF911F910895EF92FF920F931F93CF9315
:10364000DF93FC01009709F46DC0F12CEE24E394A4
:10365000EF0121968491843740F4843008F053C000
:10366000813081F0823021F15DC0853709F445C099
:10367000B0F19CE7980F903708F054C08F770E9404
:10368000311443C08F010E5F1F4FFE01849190E201
:10369000980F983050F48770FE2D01C0FF0F8A9567
:1036A000EAF78F2F0E94B41D15C00E94691312C043
:1036B0008F010E5F1F4FFE01849190E2980F9830AA
:1036C00058F48770FE2D01C0FF0F8A95EAF78F2FFF
:1036D0000E94BA1DE80119C00E943114FBCFCF012E
:1036E0000296FE01C491CC2361F0EFE9FFE031972F
:1036F000F1F700C00000C150F6CFCF010296FE01E5
:10370000F490EC0102C00E9469138F2D882341F0D0
:10371000EFE9FFE03197F1F700C000008150F6CFEC
:10372000FE0196CFDF91CF911F910F91FF90EF9007
:103730000895089560939C0170939D0180939E016C
:1037400090939F010C9494170F931F9300919C01E9
:1037500010919D0120919E0130919F01062B172B06
:10376000282B392B00939C0110939D0120939E01DF
:1037700030939F011F910F910C9494170F931F93F7
:1037800000919C0110919D0120919E0130919F011B
:10379000062317232823392300939C0110939D01AE
:1037A00020939E0130939F011F910F910C949417C9
:1037B0000F931F9300919C0110919D0120919E01F8
:1037C00030919F01062717272827392700939C014E
:1037D00010939D0120939E0130939F011F910F91A3
:1037E0000C949417109298011092990110929A01DA
:1037F00010929B010C94941741E050E060E070E05F
:1038000004C0440F551F661F771F8A95D2F7409357
:1038100098015093990160939A0170939B010C94C5
:10382000941741E050E060E070E004C0440F551F81
:10383000661F771F8A95D2F7809198019091990120
:10384000A0919A01B0919B01842B952BA62BB72BAD
:103850008093980190939901A0939A01B0939B0152
:103860000C94941741E050E060E070E004C0440F15
:10387000551F661F771F8A95D2F740955095609522
:1038800070958091980190919901A0919A01B091C1
:103890009B0184239523A623B723809398019093BB
:1038A0009901A0939A01B0939B010C94941741E065
:1038B00050E060E070E004C0440F551F661F771FA2
:1038C0008A95D2F78091980190919901A0919A01DF
:1038D000B0919B0184279527A627B727809398014D
:1038E00090939901A0939A01B0939B010C94941723
:1038F0000F931F93009198011091990120919A01C3
:1039000030919B01062B172B282B392B0093980104
:103910001093990120939A0130939B011F910F916D
:103920000C9494170F931F93009198011091990193
:1039300020919A0130919B010623172328233923D4
:10394000009398011093990120939A0130939B0161
:103950001F910F910C9494170F931F93009198014E
:103960001091990120919A0130919B010627172708
:1039700028273927009398011093990120939A01E1
:1039800030939B011F910F910C9494170895CF923F
:10399000DF92EF92FF920F931F93CF93DF93EC018F
:1039A000C0909C01D0909D01E0909E01F0909F01FD
:1039B0008091980190919901A0919A01B0919B01F9
:1039C000C82AD92AEA2AFB2A0FE110E0B701A6018A
:1039D000002E04C076956795579547950A94D2F7BF
:1039E00040FF07C0BE01802F0E94A51E81309105B7
:1039F00039F40150110950F7BE0180E00E94A51E64
:103A0000DF91CF911F910F91FF90EF90DF90CF90BA
:103A1000089590910F01992341F1982F96959695CD
:103A200096959F3088F4E0911001F0911101E90F13
:103A3000F11D877021E030E001C0220F8A95EAF77E
:103A40008181822B818308959091B30190FF2DC0D5
:103A50001F928F938BE096E09F938F930E94EB09C8
:103A60000F900F900F900F9008954091100150917A
:103A7000110120E030E09FEFFA01E20FF31F6281B5
:103A8000681799F09F3F19F4611101C0922F2F5FC1
:103A90003F4F2E30310581F79F3F39F0FA01E90F92
:103AA000F11D97FDFA9582830895089590910F0175
:103AB000992349F1982F9695969596959F3090F475
:103AC000E0911001F0911101E90FF11D877021E0E3
:103AD00030E001C0220F8A95EAF7209581812823E2
:103AE000218308959091B30190FF1FC01F928F937F
:103AF0008DEE95E09F938F930E94EB090F900F90AE
:103B00000F900F900895409110015091110120E005
:103B100030E0FA01E20FF31F9281981301C0128284
:103B20002F5F3F4F2E303105A1F7089581E090E0DF
:103B3000E0911001F0911101E80FF91F1082019638
:103B400080319105A9F708959091B201982B909337
:103B5000B201089580959091B20198239093B2019B
:103B600008951092B20108959091B101982B90930D
:103B7000B101089580959091B10198239093B1017E
:103B800008951092B10108958093A00108951092B4
:103B9000A0010895409110015091110120E030E002
:103BA00080E0FA01E20FF31F918191118F5F2F5F87
:103BB0003F4F2F303105A9F70895E0911001F091A2
:103BC00011018091B2018083E0911001F091110107
:103BD00080819091B101892B80839091A0019923DC
:103BE00061F0E0911001F09111018081892B8083B7
:103BF0000E94CA1D81111092A00180911001909124
:103C000011010C94EE118B3B60F4883A00F5853A73
:103C1000A8F4843088F4813009F055C081E090E048
:103C20000895803E08F44FC0883E30F0803F08F48D
:103C30004AC090E09065089590E00895853A09F4AF
:103C400045C0863A09F045C082E890E40895883A74
:103C500009F442C0893A09F442C08A3A09F442C0E0
:103C60008B3A09F442C08C3A09F442C08D3A09F407
:103C700042C0803B09F442C08E3A09F442C08F3AF8
:103C800009F442C0813B09F442C0823B09F442C0BE
:103C9000833B09F442C0843B09F442C0853B09F4EC
:103CA00042C0863B09F442C0873B09F442C0883BCE
:103CB00009F442C0893B09F442C08A3B09F042C082
:103CC0008AE296E4089580E090E0089581E890E427
:103CD000089583E890E4089582EE94E4089589EECF
:103CE00094E408958AEE94E4089585EB94E40895AD
:103CF00086EB94E4089587EB94E408958CEC94E4C7
:103D000008958DEC94E4089583E895E408958AE895
:103D100095E4089582E995E4089584E995E4089589
:103D200081E296E4089583E296E4089584E296E4BD
:103D3000089585E296E4089586E296E4089587E280
:103D400096E4089580E094E408950E940E0A803E6F
:103D5000A8F4803C00F5813309F45CC038F4893262
:103D600009F452C08A3209F45BC05FC08933B1F0F4
:103D70008238A1F0853309F441C057C0833E41F138
:103D800028F4803E99F0823EB9F04FC0863E31F172
:103D9000873E71F14AC00E942B0A08959091CA0192
:103DA00090FD02C091FF41C080EE3FC08091CA01EA
:103DB00080FFFACF89E339C08091CA0182FF0CC02D
:103DC0008091CA0184FF02C080E02FC083EE2DC025
:103DD0008091CA0182FFF4CF82EE27C08091CA0190
:103DE00083FF0AC08091CA0184FDEECF87EE1DC01B
:103DF0008091CA0183FFF6CF86EE17C08091CA0179
:103E000085FF06C089E211C08091CA0185FFFACF03
:103E100085E30BC08091CA0186FF06C08AE205C017
:103E20008091CA0186FFFACF81E30E94031E0895A4
:103E300080E090E008959093B6018093B5010895D5
:103E4000CF92DF92EF92FF920F931F936C01EE24BB
:103E5000FF24C114D104E104F10421F46B017C01BD
:103E600080E001C080E133272F2D1E2D0D2D01157F
:103E700011052105310519F0885F68017901970165
:103E80008601A4E03695279517950795AA95D1F751
:103E9000011511052105310519F08C5F68017901C3
:103EA00097018601F2E03695279517950795FA95C3
:103EB000D1F7011511052105310519F08E5F680153
:103EC0007901B701A6017695679557954795452BDA
:103ED000462B472B09F08F5F1F910F91FF90EF90BA
:103EE000DF90CF9008958295982F9C7C969596951B
:103EF000837344E0849F90011124922B892F8A7A46
:103F000086959575990F892B08951F93CF93DF930D
:103F10001F92CDB7DEB799830E94731F182F998126
:103F2000892F0E94731F212F30E0322F2227A901F1
:103F3000482BCA010F90DF91CF911F9108951092E5
:103F4000B40120E488E190E00FB6F894A89580933E
:103F500060000FBE2093600083B7817F846083BFC1
:103F600083B7816083BF7894889583B78E7F83BF42
:103F700088E10FB6F89480936000109260000FBE45
:103F80000895CF930E94F4090E94840A0E94F509C3
:103F9000C0E08C2F0E94AF0B811105C0CF5FCE30E7
:103FA000C1F780E001C081E0CF9108950C94A6177D
:103FB00082E084BD93E095BD9AEF97BD80936E003B
:103FC00008952FB7F8948091B7019091B801A0910E
:103FD000B901B091BA012FBF0895CF92DF92EF924D
:103FE000FF920F931F932FB7F8944091B701509110
:103FF000B8016091B9017091BA012FBF6A017B01CC
:10400000EE24FF248C0120E030E0C016D106E20649
:10401000F30610F441505109481B590BCA011F9176
:104020000F91FF90EF90DF90CF9008951F920F9225
:104030000FB60F9211248F939F93AF93BF938091EC
:10404000B7019091B801A091B901B091BA01019660
:10405000A11DB11D8093B7019093B801A093B90140
:10406000B093BA01BF91AF919F918F910F900FBE06
:104070000F901F901895F89481E08093E00080E203
:104080008093D8001092C9008FE19EE40197F1F768
:1040900000C0000087E090EBDC018093CB0190939F
:1040A000CC01A093CD01B093CE012CE088E190E04B
:1040B0000FB6F894A895809360000FBE209360001F
:1040C000FFCFEF92FF920F931F93CF93DF93E82ED2
:1040D000F12C8F2D0E94AF0BC0E0D0E0082F10E034
:1040E00098010C2E02C0359527950A94E2F720FD21
:1040F00005C02196C630D10599F709C06C2F7F2DD8
:1041000080E00E940E0AE812F4CF81E005C0F3942B
:104110008EE0F812DECF80E0DF91CF911F910F91FA
:10412000FF90EF900895CF93C82F8CE20E946120FA
:10413000882321F08C2FCF910C94612080E0CF91C7
:104140000895CF930E94EE21811102C00E94D421D4
:1041500080E396E00E945209C5E6C15049F00E94F2
:10416000840A8FE39CE90197F1F700C00000F5CFC6
:1041700089E296E00E94520989E20E94932081110F
:1041800011C18AE20E94932081110E94D42185E00E
:104190000E94932081110E943B200E94F92180936C
:1041A000B30187E00E949320882399F18BE10E945C
:1041B0009320882351F09091B30191FB882780F9D7
:1041C00021E0822780FB91F922C08EE00E9493209B
:1041D000882351F09091B30192FB882780F921E068
:1041E000822780FB92F913C080E10E949320909176
:1041F000B301882341F093FB882780F921E08227CF
:1042000080FB93F904C0892F809580FB90F99093EF
:10421000B3018091B3010E94FD210E940B22809383
:10422000CA0180EE0E949320882341F08091CA0148
:10423000982F909590FB80F98093CA0189E30E94A2
:104240009320882359F09091CA0191FB882780F927
:1042500021E0822780FB91F99093CA0182EE0E94AF
:104260009320882359F09091CA0192FB882780F906
:1042700021E0822780FB92F99093CA0186EE0E948A
:104280009320882359F09091CA0193FB882780F9E5
:1042900021E0822780FB93F99093CA0183EE0E946C
:1042A0009320882359F09091CA0194FB882780F9C4
:1042B00021E0822780FB94F99093CA0185E30E9454
:1042C0009320882359F09091CA0195FB882780F9A3
:1042D00021E0822780FB95F99093CA0181E30E9437
:1042E0009320882359F09091CA0196FB882780F982
:1042F00021E0822780FB96F99093CA0181E10E9418
:104300009320882359F09091CA0197FB882780F960
:1043100021E0822780FB97F99093CA018091CA011E
:104320000E940F228091CA0187FB882780F9809321
:104330000F0187E20E949320C82F8EE10E949320F4
:104340008111C2608FE10E9493208111C46080E2DC
:104350000E9493208111C86081E20E949320811104
:10436000C06182E20E9493208111C06283E20E94B8
:1043700093208111C06484E20E949320882311F06D
:10438000C06802C0CC2329F08C2F0E9406226C2F1B
:1043900003C00E940222682F70E080E090E0CF917D
:1043A0000C949A1BCF9108956DEE7EEF80E090E023
:1043B0000E94752D60E082E090E00E94672D60E031
:1043C00083E090E00E94672D60E084E090E00E942E
:1043D000672D60E085E090E00C94672D80E090E030
:1043E0000E94612D21E08D3E9E4F09F020E0822F3A
:1043F000089582E090E00C94592D682F82E090E0BF
:104400000C94672D83E090E00C94592D682F83E085
:1044100090E00C94672D84E090E00C94592D682F67
:1044200084E090E00C94672D8091BD0180FF0BC06B
:104430006091150185E0689FB0011124759567951D
:10444000759567952AC081FF09C06091150185E0C7
:10445000689FB0011124759567951FC082FF07C042
:104460006091150185E0689FB001112416C040914C
:10447000BE014423C9F060911401461788F72091CA
:10448000150185E0289F90011124429FC001439FA0
:10449000900D112470E00E942B2D6038710540F4BE
:1044A0006115710539F002C065E070E0862F08954E
:1044B0008FE7089581E008958091BD0180FF08C0D5
:1044C0006091130170E0759567957595679521C0AA
:1044D00081FF06C06091130170E07595679519C062
:1044E00082FF04C06091130170E010C08091BE0192
:1044F0008823C1F0609112018617A0F790911301F3
:10450000989FC001112470E00E942B2D6038710526
:1045100028F46115710521F0862F08958FE708951D
:1045200081E0089561E070E0F4CF803F21F40E94C3
:104530001422819504C0813F29F40E9414228093A3
:10454000C1010895823F21F40E941422819504C084
:10455000833F29F40E9414228093C0010895893F6B
:1045600019F40E945C2205C08A3F31F40E945C224B
:1045700081958093C20108958B3F21F40E945C22B3
:10458000819504C08C3F29F40E945C228093C30172
:104590000895843F21F48091BF01816017C0853F59
:1045A00021F48091BF01826011C0863F21F4809187
:1045B000BF0184600BC0873F21F48091BF018860F8
:1045C00005C0883F31F48091BF0180618093BF01B5
:1045D00008958D3F21F48091BD0181600BC08E3F15
:1045E00021F48091BD01826005C08F3F29F4809144
:1045F000BD0184608093BD010895803F39F48091AE
:10460000C10187FF6CC01092C10169C0813F29F4CC
:104610008091C1011816BCF362C09091C001823F25
:1046200029F497FF5CC01092C00159C0833F19F470
:104630001916CCF354C0893F41F48091C201181679
:104640000CF04DC01092C2014AC08A3F29F48091FB
:10465000C20187FF44C0F6CF8B3F39F48091C3017C
:1046600087FF3DC01092C3013AC08C3F29F480916E
:10467000C3011816BCF333C0843F21F48091BF01FD
:104680008E7F17C0853F21F48091BF018D7F11C0BF
:10469000863F21F48091BF018B7F0BC0873F21F4BF
:1046A0008091BF01877F05C0883F31F48091BF01B1
:1046B0008F7E8093BF0113C08D3F21F48091BD0197
:1046C0008E7F0BC08E3F21F48091BD018D7F05C090
:1046D0008F3F29F48091BD018B7F8093BD01809134
:1046E000C00181110EC08091C10181110AC0809169
:1046F000C201811106C08091C301811102C01092D4
:10470000BE0108958091B30183FF7EC08CE696E0E0
:104710000E9452098091BF011F928F9387E696E015
:104720009F938F930E94EB0985E696E00E945209C1
:104730002091C001822F992787FD90959F932F93F9
:1047400082E696E09F938F930E94EB0980E696E0C5
:104750000E9452092091C101822F992787FD9095CF
:104760009F932F938DE596E09F938F930E94EB0983
:104770008BE596E00E9452092091C201822F992771
:1047800087FD90959F932F9388E596E09F938F9355
:104790000E94EB0986E596E00E9452092091C30130
:1047A000822F992787FD90959F932F9383E596E01D
:1047B0009F938F930E94EB0980E596E00E94520937
:1047C0008091BE011F928F938DE496E09F938F930B
:1047D0000E94EB098BE496E00E9452098091BD0192
:1047E0001F928F9388E496E09F938F930E94EB092A
:1047F00085E496E00E9452098DB79EB74C960FB69D
:10480000F8949EBF0FBE8DBF8FEB91E00E943312D4
:104810000E94E11F9093BC018093BB0108951F93F8
:10482000CF93DF938091BB019091BC010E94ED1F5B
:104830004091BE01442321F02091160130E006C0D2
:10484000209117015AE0259F9001112482179307A8
:1048500008F482C08091C0011091C101D091C201C1
:10486000C091C301811107C0111105C0D11103C04E
:10487000CC2309F471C04F3F19F04F5F4093BE0144
:10488000181624F40E9414228093C0018091C00164
:1048900087FF05C00E94142281958093C0011116E4
:1048A00024F40E9414228093C1018091C10187FFEA
:1048B00005C00E94142281958093C1016091C001BE
:1048C000662339F11091C101112319F1772767FD92
:1048D0007095872F972F0E943C2C23E333E343E30B
:1048E0005FE30E94A02C0E94092C6093C001612FFD
:1048F000772767FD7095872F972F0E943C2C23E325
:1049000033E343E35FE30E94A02C0E94092C6093F1
:10491000C1011D1624F40E945C228093C201809183
:10492000C20187FF05C00E945C2281958093C2016D
:104930001C1624F40E945C228093C3018091C30161
:1049400087FF05C00E945C2281958093C301DF919F
:10495000CF911F910C948223DF91CF911F910895E5
:10496000EFEBF1E085E0DF011D928A95E9F7109207
:10497000BE011092BD0108958BE39BE00E94520995
:104980008EE29BE00E94520981E29BE00C94520966
:104990008EE99AE00E94520981E99AE00E94520948
:1049A00086E79AE00E9452098BE59AE00E9452093C
:1049B00083E49AE00E94520989E29AE00E94520937
:1049C0008BE09AE00E9452098BEE99E00E94520916
:1049D00086ED99E00E9452098FEB99E00E945209FE
:1049E00082EA99E00E94520983E899E00E94520904
:1049F00083E699E00E94520981E499E00E945209FD
:104A00008CE099E00E94520987EF98E00E945209D9
:104A10001F9285E08F9384EF98E09F938F930E947D
:104A2000EB098BEE98E00E9452091F9281E08F9370
:104A300088EE98E09F938F930E94EB0986EE98E0B2
:104A40000E9452098DB79EB708960FB6F8949EBF84
:104A50000FBE8DBF89EB98E00C945209833009F4A6
:104A600059C028F4813061F0823079F108958530A1
:104A700009F49AC008F473C0863009F4BAC00895E6
:104A800020911701862F90E0820F911D8F3F910595
:104A900020F4620F6093170103C08FEF809317011A
:104AA00085E997E00E945209809117011F928F9328
:104AB00082E997E09F938F930E94EB090F900F90EC
:104AC0000F900F9080E997E0B8C020911601862FD3
:104AD00090E0820F911D8F3F910520F4620F60934B
:104AE000160103C08FEF8093160181E897E00E94C2
:104AF0005209809116011F928F938EE797E09F9342
:104B00008F930E94EB090F900F900F900F908CE7FE
:104B100097E093C020911501862F90E0820F911DA0
:104B20008F3F910520F4620F6093150103C08FEF52
:104B3000809315018CE697E00E945209809115013F
:104B40001F928F9389E697E09F938F930E94EB09C2
:104B50000F900F900F900F9087E697E06EC0209116
:104B60001401862F90E0820F911D8F3F910520F454
:104B7000620F6093140103C08FEF8093140185E5E9
:104B800097E00E945209809114011F928F9382E551
:104B900097E09F938F930E94EB090F900F900F90D7
:104BA0000F9080E597E049C020911301862F90E097
:104BB000820F911D8F3F910520F4620F60931301C6
:104BC00003C08FEF809313018AE397E00E9452099C
:104BD000809113011F928F9387E397E09F938F93A8
:104BE0000E94EB090F900F900F900F9085E397E0D4
:104BF00024C020911201862F90E0820F911D8F3FDB
:104C0000910520F4620F6093120103C08FEF80932F
:104C100012018DE197E00E945209809112011F92CA
:104C20008F938AE197E09F938F930E94EB090F90F7
:104C30000F900F900F9088E197E00C945209833009
:104C400009F44DC028F4813061F0823049F10895B3
:104C5000853009F482C008F461C0863009F49CC034
:104C6000089580911701681720F4861B809317011F
:104C700002C0109217018CE097E00E9452098091C7
:104C800017011F928F9389E097E09F938F930E9463
:104C9000EB090F900F900F900F9087E097E09AC06C
:104CA00080911601681720F4861B8093160102C0BC
:104CB0001092160188EF96E00E9452098091160129
:104CC0001F928F9385EF96E09F938F930E94EB093D
:104CD0000F900F900F900F9083EF96E07BC0809124
:104CE0001501681720F4861B8093150102C01092ED
:104CF000150183EE96E00E945209809115011F92E2
:104D00008F9380EE96E09F938F930E94EB090F9014
:104D10000F900F900F908EED96E05CC08091140183
:104D2000681720F4861B8093140102C010921401AE
:104D30008CEC96E00E945209809114011F928F938F
:104D400089EC96E09F938F930E94EB090F900F9050
:104D50000F900F9087EC96E03DC08091130168178B
:104D600020F4861B8093130102C01092130181EB83
:104D700096E00E945209809113011F928F938EEA50
:104D800096E09F938F930E94EB090F900F900F90E6
:104D90000F908CEA96E01EC080911201681720F4F3
:104DA000861B8093120102C01092120184E996E0E2
:104DB0000E945209809112011F928F9381E996E01F
:104DC0009F938F930E94EB090F900F900F900F907D
:104DD0008FE896E00C945209CF93C82F8AE09BE0AD
:104DE0000E94520960919C0170919D0180919E01E9
:104DF00090919F010E94201F1F928F9327E03BE01C
:104E00003F932F930E94EB0982E09BE00E9452099E
:104E10001F92CF932FEF3AE03F932F930E94EB091D
:104E20008DEF9AE00E94520961E070E080E090E02E
:104E300004C0660F771F881F991FCA95D2F70E947A
:104E40009A1B8DB79EB708960FB6F8949EBF0FBEFB
:104E50008DBFCF910C94A617CF93482F50E0FA0145
:104E60003697E334F10508F0F1C2EA59FF4F0C948C
:104E70003F2D80EB91E10E9452090E94C32B0E94BA
:104E8000E2110E94FC0B43C185EA91E10E945209A4
:104E900082E89EE00E9452090E9402221F928F9394
:104EA0008FE79EE09F938F930E94EB098DE79EE032
:104EB0000E9452090E94F921C82F8AE69EE00E94B2
:104EC00052091F92CF9325E63EE03F932F930E9415
:104ED000EB0983E69EE00E94520989E59EE00E946C
:104EE00052098C2F81701F928F9326E53EE03F93ED
:104EF0002F930E94EB0984E59EE00E9452098AE408
:104F00009EE00E945209C1FB882780F91F928F936F
:104F100027E43EE03F932F930E94EB0985E49EE057
:104F20000E94520989E39EE00E945209C2FB882731
:104F300080F91F928F9326E33EE03F932F930E94C8
:104F4000EB0984E39EE00E9452098BE29EE00E94FE
:104F50005209C3FBCC27C0F91F92CF9388E29EE091
:104F60009F938F930E94EB0986E29EE00E94520974
:104F70000E940B22C82F82E19EE00E9452091F92DC
:104F8000CF932DE03EE03F932F930E94EB098BE0FF
:104F90009EE00E94520982EF9DE00E9452098C2FF0
:104FA00081701F928F932FEE3DE03F932F930E94CD
:104FB000EB098DB79EB780960FB6F8949EBF0FBED3
:104FC0008DBF8DEE9DE00E94520986ED9DE00E940E
:104FD0005209C1FB882780F91F928F9323ED3DE092
:104FE0003F932F930E94EB0981ED9DE00E945209AF
:104FF0008FEB9DE00E945209C2FB882780F91F9227
:105000008F932CEB3DE03F932F930E94EB098AEBAB
:105010009DE00E94520988EA9DE00E945209C3FB6C
:10502000882780F91F928F9325EA3DE03F932F93C5
:105030000E94EB0983EA9DE00E94520989E99DE004
:105040000E945209C4FB882780F91F928F9326E99A
:105050003DE03F932F930E94EB0984E99DE00E947D
:10506000520982E89DE00E945209C5FB882780F919
:105070001F928F932FE73DE03F932F930E94EB0900
:105080008DE79DE00E94520981E69DE00E94520951
:10509000C6FB882780F91F928F932EE53DE03F9352
:1050A0002F930E94EB098CE59DE00E94520984E554
:1050B0009DE00E945209C7FBCC27C0F91F92CF93F5
:1050C00081E59DE09F938F930E94EB098FE49DE023
:1050D0000E9452098DB79EB74C960FB6F8949EBFAA
:1050E0000FBE8DBF14C00E94DD11892B91F00E946C
:1050F000DD119093C6018093C5010E94A61780E040
:1051000090E00E94D8118CE991E10E945209C1E01F
:10511000A2C18091C5019091C6010E94D81181E978
:1051200091E1F3CF83E39DE00E9452098CE19DE081
:105130000E94520984E09DE00E9452098CEE9CE09E
:105140000E94520982ED9CE00E9452098BEB9CE088
:105150000E94520981EA9CE00E94520981E89CE089
:105160000E9452098BE69CE00E9452098AE59CE06D
:105170000E94520982E49CE00E94520982E39CE072
:105180000E94520988E19CE00E9452098FEF9BE047
:105190000E94520986EE9BE00E9452098DEC9BE032
:1051A0000E94520984EB9BE00E94520983E99BE034
:1051B0000E94520981E79BE00E94520987E59BE02B
:1051C000A4CF8091B301817F8E7F8093B3010E9431
:1051D000BC248CE791E10E94520988E791E10E948A
:1051E000520981E08093C40192CF0E94A6178FE5F7
:1051F00091E10E9452099FEF23ED80E391502040FE
:105200008040E1F700C000000E943B208FE491E164
:105210007CCF8091B301C82FC17080FF09C08CE39F
:1052200091E10E9452098091B301817F8E7F44C039
:105230008AE291E10E9452098091B30181608093DA
:10524000B30165CF8091B30181FBCC27C0F991E018
:10525000C927C0FB81F98093B301CC2319F081E108
:1052600091E125C087EF90E150CF8091B30182FB9F
:10527000CC27C0F991E0C927C0FB82F98093B30124
:10528000CC2319F08CED90E112C080EC90E13DCF81
:105290008091B30183FBCC27C0F991E0C927C0FB03
:1052A00083F98093B301CC2351F088EA90E10E9406
:1052B00052098091B30181608093B301CCC08FE823
:1052C00090E123CF88E790E10E9452098CE490E1BD
:1052D0000E94520985E190E10E94520988EE9FE008
:1052E0000E94520984EA9FE00E94520986E79FE0EB
:1052F0000CCF8091B7019091B801A091B901B09104
:10530000BA01BF93AF939F938F9382E69FE09F93E1
:105310008F930E94EB090F900F900F900F900F90BA
:105320000F90F5CE8CE49FE00E9452090E94E2119A
:105330001F928F9382E39FE09F938F930E94EB09CC
:1053400080910D011F928F938BE19FE09F938F932C
:105350000E94EB0980910C011F928F9388E09FE0DF
:105360009F938F930E94EB098091E0001F928F938F
:105370008DEF9EE09F938F930E94EB098091E20056
:105380001F928F9382EF9EE09F938F930E94EB0971
:105390008091E1001F928F9387EE9EE09F938F9301
:1053A0000E94EB09809143011F928F9380ED9EE054
:1053B0009F938F930E94EB09809144011F928F93DA
:1053C00083EB9EE09F938F930E94EB098DB79EB76E
:1053D00080960FB6F8949EBF0FBE8DBF98CE0E94E8
:1053E000A617C0910F0181E0C827C0930F01CC23FD
:1053F00029F084EA9EE00E9452092DC084E99EE0D3
:1054000084CE80914701882339F080914801882318
:1054100019F00E94A10E7BCE81E890E00E943E121E
:1054200080E090E00E943E129FEF29E688E19150D3
:1054300020408040E1F700C0000069CE80E003C05A
:105440008D5101C089530E94EC2661CE82E99EE015
:105450000E945209C0E08C2FCF91089580E00895FA
:1054600080E00895CF93C82F8091C401813081F0EE
:1054700020F0823009F452C060C1A0911001B091B7
:1054800011018C91813169F0823209F058C109C053
:10549000A0911001B09111018C91813111F08232F3
:1054A00049F48C2F0E942E2A811135C08C2F0E9426
:1054B0002C2732C08C2F0E94302A81112CC0C4317D
:1054C000F1F090F4CB30A1F0C03101F50E94C82476
:1054D0008CEC9AE00E94520988EC9AE00E945209F2
:1054E00082E08093C40117C0C93249F0C83371F417
:1054F0000E94BC2489EF9AE00E9452090CC085EEFC
:105500009AE00E9452091092C4011BC186EC9AE0F5
:105510000E94520916C181E0817015C1C83220F580
:10552000CE3108F0BFC0CB3099F1C8F4C73009F0D4
:10553000E7C08AE08093170194E19093160193E00D
:10554000909315018093140188E08093130188E201
:10555000809312018EE698E00E945209D6C0C331B2
:1055600041F1C431C1F0CCC0CB3409F4BEC028F441
:10557000C93289F0C83361F0C3C0C13509F4B3C082
:10558000C23509F4AEC0CE3409F0BAC06AE0B3C087
:105590000E94C824BAC01092C70181EA98E00E9414
:1055A00052098DE998E00E94520981E08093C4017C
:1055B000CAC081E498E00E9452098CE298E00E94FF
:1055C0005209809117011F928F9389E298E09F936F
:1055D0008F930E94EB0987E298E00E94520982E1D2
:1055E00098E00E945209809116011F928F938FE0DC
:1055F00098E09F938F930E94EB098DE098E00E94C2
:1056000052098BEF97E00E945209809115011F9279
:105610008F9388EF97E09F938F930E94EB0986EF1B
:1056200097E00E94520982EE97E00E945209809111
:1056300014011F928F938FED97E09F938F930E9499
:10564000EB098DED97E00E94520985EC97E00E94EE
:105650005209809113011F928F9382EC97E09F93E0
:105660008F930E94EB0980EC97E00E94520986EA32
:1056700097E00E945209809112011F928F9383EA52
:1056800097E09F938F930E94EB0981EA97E00E9435
:1056900052098DB79EB748960FB6F8949EBF0FBEBD
:1056A0008DBF33C0CE51EC2FF0E0E85EFE4F80811D
:1056B0008093C70188E898E00E9452098091C70151
:1056C0001F928F9385E898E09F938F930E94EB0938
:1056D00083E898E00E9452090F900F900F900F906E
:1056E00014C061E003C061E006C06AE08091C701B8
:1056F0000E942E250AC08091C7010E941F2605C066
:105700008CE698E00E94520916C08AE698E00E9452
:1057100052098091C7011F928F9387E698E09F936B
:105720008F930E94EB0984E698E00E9452090F9043
:105730000F900F900F9081E006C01092C40180E09E
:1057400002C080E0E9CECF910895E1E8F0E08081E9
:10575000886080838081816080838FB7F89493E034
:105760009093890090ED909388008FBF0895EFE6A5
:10577000F0E08081826080830895EFE6F0E0808130
:105780008D7F80830895EFE6F0E0808192E08927A5
:10579000808308951F920F920FB60F9211242F93BA
:1057A0003F934F935F936F937F938F939F93AF93A9
:1057B000BF93EF93FF938091C8019091C901019627
:1057C0009093C9018093C801811103C082E00E94B7
:1057D000FC0BE091C901E695E695F0E0E054FE4E41
:1057E000E4918091C8018E1303C080E00E94FC0BFD
:1057F000FF91EF91BF91AF919F918F917F916F91A9
:105800005F914F913F912F910F900FBE0F901F907E
:10581000189504D06894B1118DC0089570D088F0A7
:105820009F5790F0B92F9927B751A0F0D1F0660F8C
:10583000771F881F991F1AF0BA95C9F712C0B130A7
:1058400081F077D0B1E0089574C0672F782F882752
:10585000B85F39F0B93FCCF3869577956795B395E6
:10586000D9F73EF490958095709561957F4F8F4F55
:105870009F4F0895E89409C097FB3EF4909580955A
:10588000709561957F4F8F4F9F4F9923A9F0F92F06
:1058900096E9BB279395F695879577956795B79584
:1058A000F111F8CFFAF4BB0F11F460FF1BC06F5F6A
:1058B0007F4F8F4F9F4F16C0882311F096E911C07C
:1058C000772321F09EE8872F762F05C0662371F09D
:1058D00096E8862F70E060E02AF09A95660F771FB1
:1058E000881FDAF7880F9695879597F9089557FDE1
:1058F0009058440F551F59F05F3F71F04795880F3E
:1059000097FB991F61F09F3F79F0879508951216D4
:1059100013061406551FF2CF4695F1DF08C0161680
:1059200017061806991FF1CF869571056105089431
:105930000895E894BB2766277727CB0197F9089548
:105940000BD078C069D028F06ED018F0952309F0FC
:105950005AC05FC01124EECFCADFA0F3959FD1F3E8
:10596000950F50E0551F629FF001729FBB27F00D0D
:10597000B11D639FAA27F00DB11DAA1F649F662762
:10598000B00DA11D661F829F2227B00DA11D621FB1
:10599000739FB00DA11D621F839FA00D611D221F6B
:1059A000749F3327A00D611D231F849F600D211D4F
:1059B000822F762F6A2F11249F5750408AF0E1F0F2
:1059C00088234AF0EE0FFF1FBB1F661F771F881F3B
:1059D00091505040A9F79E3F510570F014C0AACFD6
:1059E0005F3FECF3983EDCF3869577956795B79526
:1059F000F795E7959F5FC1F7FE2B880F911D969550
:105A0000879597F9089597F99F6780E870E060E0BF
:105A100008959FEF80EC089500240A941616170647
:105A200018060906089500240A941216130614068F
:105A300005060895092E0394000C11F4882352F0F2
:105A4000BB0F40F4BF2B11F460FF04C06F5F7F4FAA
:105A50008F4F9F4F089597FB072E16F4009407D0A1
:105A600077FD09D00E94452D07FC05D03EF49095A6
:105A700081959F4F0895709561957F4F0895EE0F22
:105A8000FF1F0590F491E02D0994AA1BBB1B51E167
:105A900007C0AA1FBB1FA617B70710F0A61BB70B9E
:105AA000881F991F5A95A9F780959095BC01CD0143
:105AB0000895F999FECF92BD81BDF89A992780B5D6
:105AC0000895A8E1B0E042E050E00C947C2D262F30
:105AD000F999FECF1FBA92BD81BD20BD0FB6F894D3
